:020000040800F2
:1000000000070020450100085D1700080D140008D6
:10001000591700080B0300086537000800000000AE
:10002000000000000000000000000000E11C0008CB
:100030005703000800000000C91B00085D0100080C
:100040005F0100085F0100085F0100085F01000810
:100050005F0100085F0100085F0100085F01000800
:100060005F0100085F0100085F0100085F010008F0
:100070005F0100085F0100085F0100085F010008E0
:100080005F0100085F0100085F0100085F010008D0
:100090005F0100085F0100085F0100085F010008C0
:1000A0005F010008951F00085F0100085F0100085C
:1000B0005F010008B11F00085F0100085F01000830
:1000C0005F0100085F0100085F0100085F01000890
:1000D0005F010008512100085F0100085F0100086E
:1000E0005F0100085F0100085F0100085F01000870
:1000F0005F0100085F0100085F0100085F01000860
:100100005F0100085F010008012000085F0100088E
:100110005F0100085F0100081D2000085F01000862
:100120005F0100085F0100085F0100085F0100082F
:10013000DFF80CD000F036F8004800476D3C0008AE
:10014000000700200648804706480047FEE7FEE714
:10015000FEE7FEE7FEE7FEE7FEE7FEE7FEE7FEE777
:10016000351F000831010008421C10F8011B00294E
:10017000FBD1801A704730B50B4601460020202283
:10018000012409E021FA02F59D4205D303FA02F5A4
:10019000491B04FA02F52844151EA2F10102F1DC04
:1001A00030BD0000064C074D06E0E06840F001035A
:1001B00094E8070098471034AC42F6D3FFF7BCFF31
:1001C00054470008744700087CB50446002000909E
:1001D00001900025FF208DF80000FB208DF8010024
:1001E00004208DF8020022208DF8030020788DF87D
:1001F0000400022005E01DF800102944CDB2411C86
:10020000C8B20528F7DB8DF805500621684601F0D5
:10021000B7FF7CBD7CB5044600200090019000250E
:10022000FF208DF80000FB208DF8010004208DF8E0
:1002300002002A208DF803008DF80440022005E01A
:100240001DF800102944CDB2411CC8B20528F7DBC7
:100250008DF805500621684601F092FF7CBD7CB503
:1002600004460020009001900025FF208DF800003A
:10027000FB208DF8010004208DF8020033208DF85A
:10028000030020788DF80400022005E01DF800101E
:100290002944CDB2411CC8B20528F7DB8DF80550C2
:1002A0000621684601F06CFF7CBD7CB504460D4616
:1002B0000020009001900026FF208DF80000FB2018
:1002C0008DF8010006208DF802000A208DF8030049
:1002D00020788DF8040060788DF805008DF80650C0
:1002E000022005E01DF800103144CEB2411CC8B216
:1002F0000728F7DB8DF807600821684601F040FF0A
:100300000221204600F01CF87CBD00BFFEE7000083
:10031000002004E00021074A1154411CC8B20649DC
:1003200009788842F6DB0020034908700349087009
:1003300070470000DC0000201E0000201D0000208F
:100340000246002000BF03E000231354431CD8B230
:100350008842F9DB704770472DE9F04102460025DD
:100360000026002000230024002791F803C00CF091
:100370000F0591F803C00CF0100CBCF1000F03D076
:1003800091F802C04CEA050591F800C0BCF1000FDD
:1003900031D0146800202BE04FF0010C0CFA00F370
:1003A000B1F800C00CEA03069E4220D183004FF052
:1003B0000F0C0CFA03F7BC4305FA03FC4CEA0404E7
:1003C00091F803C0BCF1280F06D14FF0010C0CFAD4
:1003D00000FCC2F814C00AE091F803C0BCF1480F59
:1003E00005D14FF0010C0CFA00FCC2F810C0401C03
:1003F0000828D1D31460B1F800C0BCF1FF0F34DD80
:10040000546800202EE000F1080C4FF0010808FAB3
:100410000CF3B1F800C00CEA03069E4221D1830020
:100420004FF00F0C0CFA03F7BC4305FA03FC4CEA3F
:10043000040491F803C0BCF1280F05D100F1080CA9
:1004400008FA0CF8C2F8148091F803C0BCF1480F08
:1004500007D100F1080C4FF0010808FA0CF8C2F8B7
:100460001080401C0828CED35460BDE8F0810246BD
:10047000002093680B400BB1012000E00020704782
:100480004161704701617047014800787047000082
:100490001D00002001480078704700001E00002069
:1004A00000487047DC0000201CB5072001F09AF9D5
:1004B000FE490860082001F095F9FD490860052013
:1004C00001F090F9FB490860062001F08BF9FA4928
:1004D0000860962003F09EFA01F0E4F9F7490860FD
:1004E000C82003F097FAF5480068002800F07687E6
:1004F000F248006811285BD2DFE800F05AFC5A5A33
:100500005AAD09FB5BFAF9F8F7F6F5F4F300EB489E
:10051000006806284CD1EA480068801CE849086059
:1005200008460068B42802DBB420086006E0E4480E
:100530000068002802DA0020E1490860E04800680D
:1005400040F698014843B42190FBF1F000F561704A
:10055000DC4908600868C11700EB1161090ADA4A32
:100560001170D8480078D9490870D9480088000A25
:10057000D8490870D6480078D749087010460078E6
:100580008DF80400D14800788DF80500D148007836
:100590008DF80600084600788DF8070001AB0422AC
:1005A0001121152003F0CEFA0A2003F013FA00BF40
:1005B00028E2C248006808284CD1C1480068801E63
:1005C000BF49086008460068B42802DBB420086010
:1005D00006E0BB480068002802DA0020B84908603D
:1005E000B748006840F698014843B42190FBF1F009
:1005F00000F56170B34908600868C11700EB11612C
:10060000090AB14A1170AF480078B0490870B04883
:100610000088000AAF490870AD480078AE490870FC
:10062000104600788DF80400A84800788DF8050081
:10063000A84800788DF80600084600788DF8070075
:1006400001AB04221121152003F07CFA0A2003F0EB
:10065000C1F900BFD1E399480068052857D19F48E8
:100660000068801C9D49086008460068B42802DBC9
:10067000B420086006E099480068002802DA0020EB
:10068000964908609548006840F698014843B421AF
:1006900090FBF1F000F56170914908600868C1179E
:1006A00000EB1161090A8F4A11708D4800788E495C
:1006B000087087480088000A8C49087084480078D0
:1006C0008B490870104600788DF804008648007841
:1006D0008DF80500854800788DF8060008460078FA
:1006E00009E035E2E5E2E0E185E28CE1B4E038E101
:1006F00060E00DE06AE38DF8070001AB04221221EF
:10070000152003F01FFA0A2003F064F900BF74E318
:100710006A48006807284CD170480068801E6F49FD
:10072000086008460068B42802DBB420086006E0D0
:100730006A480068002802DA0020684908606748B3
:10074000006840F698014843B42190FBF1F000F5B1
:100750006170634908600868C11700EB1161090AFC
:10076000604A11705E4800785F49087058480088F8
:10077000000A5E490870564800785D4908701046C6
:1007800000788DF80400584800788DF80500574827
:1007900000788DF80600084600788DF8070001AB58
:1007A00004221221152003F0CDF90A2003F012F9DA
:1007B00000BF22E34148006809284CD14D48006839
:1007C000801C4C49086008460068B42802DBB4204D
:1007D000086006E047480068002802DA0020454922
:1007E00008604448006840F698014843B42190FBF3
:1007F000F1F000F56170404908600868C11700EB2E
:100800001161090A3D4A11703B4800783C49087063
:100810002F480088000A3B4908702D4800783A4963
:100820000870104600788DF80400354800788DF87F
:100830000500344800788DF80600084600788DF8E9
:10084000070001AB04221321152003F07BF90A20D5
:1008500003F0C0F800BFD0E2184800680B287FD131
:1008600024480068801E2349086008460068B428B0
:1008700002DBB420086006E01E480068002802DAA7
:1008800000201C4908601B48006840F69801484356
:10089000B42190FBF1F000F5617017490860086819
:1008A000C11700EB1161090A144A2FE07C000020F7
:1008B0008000002084000020880000208C000020A0
:1008C0006400002090000020A8000020A900002063
:1008D00060000020AA000020AB000020680000207B
:1008E00094000020AC000020AD000020AE000020ED
:1008F000AF0000206C00002098000020B000002015
:10090000B1000020B2000020B30000201170FE48AA
:100910000078FE490870FE480088000AFD4908700A
:10092000FB480078FC490870104600788DF80400F8
:10093000F64800788DF80500F64800788DF8060036
:10094000084600788DF8070001AB0422132115201A
:1009500003F0F8F80A2003F03DF800E000E000BFE3
:100960004BE2EE4800680A284CD1ED480068801C34
:10097000EB49086008460068B42802DBB420086030
:1009800006E0E7480068002802DA0020E449086031
:10099000E348006840F698014843B42190FBF1F029
:1009A00000F56170DF4908600868C11700EB11614C
:1009B000090ADD4A1170DB480078DC490870D44828
:1009C0000088000ADA490870D1480078D9490870CF
:1009D000104600788DF80400D44800788DF80500A2
:1009E000D34800788DF80600084600788DF8070097
:1009F00001AB04221421152003F0A4F80A2002F010
:100A0000E9FF00BFF9E1C54800680C284CD1C44893
:100A10000068801EC249086008460068B42802DBEE
:100A2000B420086006E0BE480068002802DA002012
:100A3000BB490860BA48006840F698014843B421B1
:100A400090FBF1F000F56170B64908600868C117C5
:100A500000EB1161090AB44A1170B2480078B34939
:100A60000870AB480088000AB1490870A8480078AF
:100A7000B0490870104600788DF80400AB48007843
:100A80008DF80500AA4800788DF806000846007821
:100A90008DF8070001AB04221421152003F052F851
:100AA0000A2002F097FF00BFA7E19C4800680E28CB
:100AB0004DD1A1480068801C9F4908600846006825
:100AC000B42802DBB420086006E09B4800680028D8
:100AD00002DA0020984908609748006840F6F8411B
:100AE00048434FF4877190FBF1F000F5BE709349D5
:100AF00008600868C11700EB1161090A904A11707B
:100B00008E4800788F49087081480088000A8E4915
:100B100008707F4800788D490870104600788DF87D
:100B20000400884800788DF80500874800788DF823
:100B30000600084600788DF8070001AB0422152155
:100B4000084602F0FFFF0A2002F044FF00BF54E114
:100B50007248006810284DD177480068801E764999
:100B6000086008460068B42802DBB420086006E08C
:100B700071480068002802DA00206F4908606E485A
:100B8000006840F6F84148434FF4877190FBF1F05C
:100B900000F5BE70694908600868C11700EB116173
:100BA000090A674A11706548007866490870584814
:100BB0000088000A64490870554800786349087045
:100BC000104600788DF804005E4800788DF8050026
:100BD0005D4800788DF80600084600788DF807001B
:100BE00001AB04221521084602F0ACFF0A2002F0F6
:100BF000F1FE00BF01E1494800680D2858D1544872
:100C00000068801C5249086008460068B42802DB6E
:100C1000B420086006E04E480068002802DA002090
:100C20004B4908604A48006840F698014843B4219F
:100C300090FBF1F000F56170464908600868C11743
:100C400000EB1161090A444A117042480078434997
:100C500008702F480088000A414908702C48007825
:100C6000404908700846007800903D4803783B48AA
:100C70000278394801783CA002F076FD36480078C9
:100C80008DF80400354800788DF805003448007868
:100C90008DF80600334800788DF8070001AB042278
:100CA0001621152002F04EFF0A2002F093FE00BF2D
:100CB000A3E01A4800680F287ED125480068801EEE
:100CC0002349086008460068B42802DBB4200860A5
:100CD00006E01F480068002802DA00201C4908606E
:100CE0001B48006840F698014843B42190FBF1F09E
:100CF00000F56170174908600868C11700EB1161C1
:100D0000090A154A117037E098000020B100002050
:100D100060000020B2000020B30000208C00002002
:100D2000700000209C000020B4000020B5000020CE
:100D3000B6000020B700002074000020A0000020B2
:100D4000B8000020B9000020BA000020BB0000203D
:100D500078000020A4000020BC000020BD0000207E
:100D6000BE000020BF0000202564202564202564EB
:100D70002025640A00000000FE480078FE49087043
:100D8000FE480088000AFE490870FC480078FD49CA
:100D90000870104600788DF80400F74800788DF848
:100DA0000500F74800788DF80600084600788DF8B1
:100DB000070001AB042200E007E01621152002F035
:100DC000C1FE0A2002F006FE00BF16E0EE480068F1
:100DD000012811D1ED4B02221E21152002F0B2FE96
:100DE000322002F017FEEA4B0C221D21152002F0E2
:100DF000A9FE0A2002F0EEFD00BF00BFE548006832
:100E0000052854DAE4480068502850DDE2480068BC
:100E1000B4284CDAE1480068801EE04908600846C2
:100E20000068B42802DBB420086006E0DB480068F4
:100E3000002802DA0020D9490860D848006840F646
:100E400098014843B42190FBF1F000F56170D4495A
:100E500008600868C11700EB1161090AD14A1170D6
:100E6000CF480078D0490870C4480088000ACF49AC
:100E70000870C2480078CE490870104600788DF896
:100E80000400C94800788DF80500C84800788DF83E
:100E90000600084600788DF8070001AB04221221F5
:100EA000152002F04FFE0A2002F094FD0AE1B94835
:100EB0000068E62854DDB8480068502850DDB64880
:100EC0000068B4284CDAB5480068801CB349086053
:100ED00008460068B42802DBB420086006E0AF488A
:100EE0000068002802DA0020AC490860AB480068BE
:100EF00040F698014843B42190FBF1F000F5617091
:100F0000A74908600868C11700EB1161090AA54AE2
:100F10001170A3480078A449087098480088000A16
:100F2000A249087095480078A149087010460078D9
:100F30008DF804009C4800788DF805009B480078E7
:100F40008DF80600084600788DF8070001AB0422F2
:100F50001221152002F0F6FD0A2002F03BFDB1E05F
:100F60008D480068052854DA8A480068502850DD0A
:100F700088480068B4284CDA88480068801C874993
:100F8000086008460068B42802DBB420086006E068
:100F900082480068002802DA0020804908607F4803
:100FA000006840F698014843B42190FBF1F000F549
:100FB00061707B4908600868C11700EB1161090A7C
:100FC000784A117076480078774908706B48008835
:100FD000000A76490870694800787549087010461B
:100FE00000788DF80400704800788DF805006F488F
:100FF00000788DF80600084600788DF8070001ABF0
:1010000004221121152002F09DFD0A2002F0E2FCCD
:1010100058E060480068502854DD5E480068B428F5
:1010200050DA5D480068E6284CDD5C480068801EA8
:101030005A49086008460068B42802DBB4200860FA
:1010400006E056480068002802DA0020534908608C
:101050005248006840F698014843B42190FBF1F0F3
:1010600000F561704E4908600868C11700EB116116
:10107000090A4C4A11704A4800784B4908703F48A9
:101080000088000A494908703C48007848490870BF
:10109000104600788DF80400434800788DF805006C
:1010A000424800788DF80600084600788DF8070061
:1010B00001AB04221121152002F044FD0A2002F0A8
:1010C00089FC00BF3B48006805287ADA3A48006886
:1010D000502876DD38480068B42872DA2F48006856
:1010E000801E2E49086008460068B42802DBB42040
:1010F000086006E029480068002802DA0020274935
:1011000008602648006840F698014843B42190FBE7
:10111000F1F000F56170224908600868C11700EB22
:101120001161090A1F4A11701D4800781E49087094
:1011300012480088000A1D490870104800781C49B0
:101140000870104600788DF80400174800788DF874
:101150000500164800788DF80600084600788DF8DE
:10116000070001AB04221621152002F0EBFC0A2037
:1011700024E026E0A4000020BD0000206000002044
:10118000BE000020BF0000208C000020CC0000200A
:10119000C0000020800000207C00002064000020AF
:1011A00090000020A8000020A9000020AA00002034
:1011B000AB000020880000208400002002F00AFC20
:1011C0000CE187480068E62854DD8648006850280E
:1011D00050DD84480068B4284CDA83480068801CDD
:1011E0008149086008460068B42802DBB420086022
:1011F00006E07D480068002802DA00207A4908608D
:101200007948006840F698014843B42190FBF1F01A
:1012100000F56170754908600868C11700EB11613D
:10122000090A734A1170714800787249087072484F
:101230000088000A714908706F480078704908708A
:10124000104600788DF804006A4800788DF8050093
:101250006A4800788DF80600084600788DF8070087
:1012600001AB04221621152002F06CFC0A2002F0CA
:10127000B1FBB3E05B480068052855DA58480068C0
:10128000502851DD56480068B4284DDA5D480068A2
:10129000801C5C49086008460068B42802DBB42062
:1012A000086006E057480068002802DA0020554927
:1012B00008605448006840F6F84148434FF487718D
:1012C00090FBF1F000F5BE704F4908600868C11747
:1012D00000EB1161090A464A11704B4800784549F4
:1012E000087045480088000A444908704248007860
:1012F00043490870104600788DF804003D48007896
:101300008DF805003D4800788DF806000846007805
:101310008DF8070001AB04221521084602F012FCEB
:101320000A2002F057FB59E02D480068502855DD8F
:101330002B480068B42851DA2A480068E6284DDDB9
:1013400030480068801E2F49086008460068B428AD
:1013500002DBB420086006E02A480068002802DAB0
:101360000020284908602748006840F6F8414843B3
:101370004FF4877190FBF1F000F5BE7022490860D0
:101380000868C11700EB1161090A194A11701E485B
:1013900000781849087018480088000A1749087032
:1013A0001548007816490870104600788DF804003A
:1013B000104800788DF80500104800788DF8060078
:1013C000084600788DF8070001AB04221521084675
:1013D00002F0B8FB0A2002F0FDFA00BF1CBD0000BD
:1013E000880000208400002064000020900000207D
:1013F000A8000020A900002060000020AA00002012
:10140000AB00002074000020A000002000BFFEE719
:1014100010B54FF400610E48FFF732F8042002F0D7
:10142000F9FA4FF480610A48FFF72CF8042002F023
:10143000F1FA4FF480610648FFF722F8042002F029
:10144000E9FA4FF400610248FFF71CF810BD0000F4
:10145000000C014008B50121082000F0C7FB4FF443
:101460008060ADF8000014208DF8030003208DF893
:10147000020069460F48FEF76FFF4FF40060ADF8B9
:10148000000014208DF8030003208DF80200694647
:101490000848FEF761FF4FF400610648FEF7F2FFCF
:1014A0004FF480610348FEF7EDFF022002F0B2FA2C
:1014B00008BD0000000C014010B54FF400610B485E
:1014C000FEF7E0FF042002F0A5FA4FF48061074820
:1014D000FEF7D8FF042002F09DFA4FF48061034824
:1014E000FEF7CEFF042002F095FA10BD000C01407B
:1014F00070B50546002400261BE04FF480611648B5
:10150000FEF7C0FF042002F085FA6006040E4FF4D7
:1015100000611148FEF7ABFF08B1601CC4B24FF484
:1015200080610D48FEF7ACFF042002F073FA701CD6
:10153000C6B2082EE1DB4FF400610748FEF7A2FFB8
:10154000022002F067FA15B1FFF762FF01E0FFF732
:10155000B3FF204670BD0000000C014070B504468A
:101560004FF480611A48FEF78BFF042002F052FA14
:10157000002524E004F0800028B14FF400611448F5
:10158000FEF780FF04E04FF400611148FEF778FF9A
:101590006006040E042002F03DFA4FF480610C480E
:1015A000FEF770FF022002F035FA4FF48061084820
:1015B000FEF766FF022002F02DFA681CC5B2082D66
:1015C000D8DB4FF400610248FEF75CFF70BD0000FD
:1015D000000C014010B54FF400610C48FEF752FFBB
:1015E0004FF480610948FEF74DFF042002F012FA23
:1015F0004FF400610548FEF743FF042002F00AFAA9
:101600004FF480610148FEF73BFF10BD000C014024
:1016100010B54FF400610C48FEF732FF4FF48061C3
:101620000948FEF72DFF052002F0F4F94FF4806120
:101630000548FEF727FF052002F0ECF94FF40061A2
:101640000148FEF71FFF10BD000C014070B50024DB
:1016500000254FF400611248FEF714FF042002F049
:10166000D9F94FF480610E48FEF70CFF042002F018
:10167000D1F907E0601CC4B2FA2C03DDFFF7C8FF04
:10168000012070BD4FF400610548FEF7F0FE002810
:10169000F0D14FF480610248FEF7F2FE2846F0E7F1
:1016A000000C014008B50121102000F09FFA4FF412
:1016B0000050ADF8000010208DF8030003208DF8D5
:1016C000020069460448FEF747FE4FF40051024805
:1016D000FEF7D8FE08BD00000010014000B5002054
:1016E00015490861C8601420486100208861C861FC
:1016F0000846006840F001000860084640680F494D
:1017000008400D494860084600680D4908400A49EC
:1017100008600846006820F4802008600846406899
:1017200020F4FE0048600020886000214FF0006037
:1017300000F008F800BD0000001002400000FFF8B3
:10174000FFFFF6FE024A0A400243024B1A6070474E
:1017500080FFFF1F08ED00E000BFFEE770470000BC
:1017600070B5002100230F22C47804B3154C2468FF
:1017700004F4E064C4F5E064210AC1F10403CA4042
:10178000447804FA03F184781440214309010E4C93
:101790000678A155047804F01F050124AC400578B3
:1017A0006D11AD0005F1E025C5F8004109E00478B0
:1017B00004F01F050124AC40044D0678761145F86D
:1017C000264070BD0CED00E000E400E080E100E0A8
:1017D00002490143024A1160704700000000FA0507
:1017E0000CED00E001460148405C7047F00000202D
:1017F000002004E00021034A1154411CC8B209280A
:10180000F8DB7047F000002038B504460120009056
:101810000020224948700120009037E0BDF8000008
:10182000204028B14FF400411D48FEF72BFE04E094
:101830004FF400411A48FEF723FE4FF400511848B8
:10184000FEF720FE052002F0E5F84FF400511448A1
:10185000FEF716FE052002F0DDF84FF400511048A7
:10186000FEF710FE4FF480410D48FEF700FE30B148
:101870000A484078BDF80010084308494870BDF890
:1018800000004FF6FF7101EA40000090BDF8000033
:10189000FF28C3DD102002F0BDF838BDF0000020A5
:1018A000000C014010B5FFF7A3FF00F0CFF80F4880
:1018B000C0780E49097940EA01200D4908800024CA
:1018C0000FE00C4810F81400401E012101FA00F04E
:1018D00007490988084010B9601CC0B210BD601CDF
:1018E000C4B2102CEDDB0020F8E70000F00000206F
:1018F000300000203400002010B54FF4805115480E
:10190000FEF7BEFD102002F085F80120FFF77CFFF6
:101910004320FFF779FF0020FFF776FF0120FFF754
:1019200073FF0020FFF770FF0020FFF76DFF00201E
:10193000FFF76AFF0020FFF767FF0020FFF764FF53
:101940004FF480510348FEF79DFD102002F062F82D
:1019500010BD0000000C014010B54FF48051154837
:10196000FEF78EFD102002F055F80120FFF74CFF26
:101970004320FFF749FF0020FFF746FF0020FFF755
:1019800043FF5A20FFF740FF5A20FFF73DFF5A2040
:10199000FFF73AFF5A20FFF737FF5A20FFF734FFCF
:1019A0004FF480510348FEF76DFD102002F032F82D
:1019B00010BD0000000C014008B50121082000F016
:1019C00015F948208DF803004FF48040ADF8000071
:1019D00003208DF8020069461B48FEF7BDFC01217B
:1019E000082000F003F910208DF80300C002ADF8C4
:1019F000000003208DF8020069461348FEF7ACFC96
:101A00000121082000F0F2F810208DF803000002F8
:101A1000ADF8000003208DF8020069460A48FEF781
:101A20009BFC0121082000F0E1F810208DF8030054
:101A30004002ADF8000003208DF80200694602481C
:101A4000FEF78AFC08BD0000000C01401CB5002018
:101A500001900120009001032948FEF711FD29495A
:101A60000878FFF7D1FE27494878FFF7CDFE02201E
:101A700001903BE0012000902CE04FF40051204801
:101A8000FEF700FD052001F0C5FF4FF400511C4892
:101A9000FEF7F6FC052001F0BDFF4FF40051184899
:101AA000FEF7F0FC4FF480411548FEF7E0FC50B122
:101AB00015489DF80410405CBDF800100843124919
:101AC0009DF804208854BDF800004FF6FF7101EA2C
:101AD00040000090BDF80000FF28CEDD0F2001F08F
:101AE00099FF9DF80400401CC0B201909DF80400CD
:101AF0000928BFDB4FF480510148FEF7C3FC1CBD31
:101B0000000C014032000020F000002010B500F071
:101B10000BF800F009F800F007F8FFF7EDFE00F011
:101B200027F8FFF719FF10BD10B54FF480510F488B
:101B3000FEF7A6FC102001F06DFF0120FFF764FE08
:101B40004220FFF761FE0020FFF75EFE0020FFF756
:101B50005BFE0020FFF758FE4FF480510348FEF76C
:101B600091FC102001F056FF10BD0000000C014058
:101B700010B54FF480511348FEF782FC0120FFF7A7
:101B800043FE4420FFF740FE0020FFF73DFE01200A
:101B9000FFF73AFE0320FFF737FE0020FFF734FE81
:101BA0000020FFF731FE0020FFF72EFE0020FFF798
:101BB0002BFE4FF480510348FEF764FC102001F027
:101BC00029FF10BD000C01407047000029B1064AF2
:101BD000D2690243044BDA6104E0034AD2698243CA
:101BE000014BDA61704700000010024029B1064A3B
:101BF00092690243044B9A6104E0034A926982436A
:101C0000014B9A61704700000010024030B500217E
:101C10000022002400232D4D6D6805F00C0121B138
:101C2000042905D0082923D105E0294D056022E0CB
:101C3000274D05601FE0254D6D6805F47012234D9A
:101C40006D6805F48034022505EB92421CB9214DE4
:101C5000554305600BE01D4D6D6805F400351DB161
:101C60001C4D5543056002E0194D5543056002E0E7
:101C7000174D056000BF00BF144D6D6805F0F00101
:101C80000909154D6B5C0568DD4045600F4D6D68B9
:101C900005F4E061090A104D6B5C4568DD40856024
:101CA0000A4D6D6805F46051C90A0B4D6B5C4568BF
:101CB000DD40C560054D6D6805F44041890B074D59
:101CC0006B5CC568B5FBF3F5056130BD00100240E3
:101CD00000127A0000093D000000002010000020E2
:101CE000704710B504462146682000F013FA10BD75
:101CF0002DE9F04186B006463046FEF735FA801CE5
:101D000084B20025A4F10208404601F0E9FF07462D
:101D1000FD208DF80C0020128DF80D00E0B28DF83A
:101D20000E0001208DF80F0000208DF810000596A0
:101D30009DF80C008DF804009DF80D008DF805004D
:101D40009DF80E008DF806009DF80F008DF8070035
:101D50009DF810008DF8080000BF02E0705D785516
:101D60006D1CA01EA842F9DC01AA0521302001F05B
:101D7000EDFF0A2001F04EFEA01EC1B23A4630200F
:101D800001F0E4FF384601F077FE06B0BDE8F081CF
:101D900010B5044621466D2000F0BCF910BD10B509
:101DA00004462146692000F0B5F910BD10B500F0D9
:101DB00001F810BD0CB50020019000903348006878
:101DC00040F480303149086000BF3048006800F4BA
:101DD000003000900198401C0190009820B94FF607
:101DE000FF7101988842F0D12848006800F4003063
:101DF00010B10120009001E000200090009801281F
:101E000043D12348006840F010002149086008468B
:101E1000006820F0030008600846006840F00200F7
:101E200008601A4840681949486008464068486098
:101E30000846406840F4806048600846406820F4E6
:101E40007C1048600846406840F4E8104860084646
:101E5000006840F08070086000BF0C48006800F027
:101E600000700028F9D00948406820F003000749B5
:101E700048600846406840F00200486000BF0348E0
:101E8000406800F00C000828F9D10CBD0010024099
:101E90000020024010B504462146762000F03AF9B1
:101EA00010BD000030B504460025FFF717FC1F48A1
:101EB000006840F480301D49086000BF1B4800687E
:101EC000400C0028FAD04FF4806018494860A01EEA
:101ED000C4B20846406840EA84404860084640680A
:101EE00040F4803048601248006840F032001049E9
:101EF00008600E48006840F080700C49086000BF20
:101F00000A480068400E0028FAD00848406840F0AF
:101F100002000649486005E004484068C0F38705B0
:101F200005F00305022DF7D130BD0000001002407E
:101F30000020024010B51348006840F0010011492C
:101F4000086008464068104908400E494860084645
:101F500000680E4908400B4908600846006820F4F4
:101F6000802008600846406820F4FE0048604FF476
:101F70001F008860FFF71AFF4FF0006004490860F7
:101F800010BD0000001002400000FFF8FFFFF6FE49
:101F900008ED00E010B50121044800F04FF818B139
:101FA0000121024800F03BF810BD0000002C014068
:101FB00010B501210F4800F041F8B0B10E49088872
:101FC0000988491C0C4A118000EBD0714910A0EB24
:101FD0004101012904D149030848FEF751FA04E000
:101FE0004FF400510548FEF74DFA0121014800F079
:101FF00016F810BD000400402E0000200010014023
:1020000010B50121044800F019F818B10121024867
:1020100000F005F810BD0000000C00407047CA43F6
:102020000282704721B1028842F00102028004E07E
:1020300002884FF6FE731A400280704730B50246A0
:10204000002000230024158A05EA0103958905EA8A
:10205000010413B10CB1012000E0002030BD1AB121
:1020600083890B43838102E083898B43838170479B
:10207000002202881D4B98420ED01D4B98420BD077
:10208000B0F1804F08D01B4B984205D01A4B9842B4
:1020900002D01A4B984204D14FF68F731A404B88E6
:1020A0001A43174B984207D0164B984204D04FF66C
:1020B000FF431A40CB881A4302808B8883850B88A4
:1020C00003850A4B98420BD0094B984208D00E4B1F
:1020D000984205D00D4B984202D00D4B984201D149
:1020E0000B7A03860123838270470000002C014095
:1020F000003401400004004000080040000C004093
:102100000010004000140040004001400044014025
:10211000004801403EB505460C46601C30B12346E0
:102120002A4607A1684601F02FFB04E02A4606A1D3
:10213000684601F029FB6846FFF7DAFD3EBD000066
:102140005B256325645D00005B25635D0000000086
:1021500010B5002440F22551084800F0ACF830B129
:10216000064800F063F9C4B2204601F093FA40F249
:102170002551024800F022F810BD0000003801404F
:1021800070B504460D4603E0207800F007F8641CA3
:10219000281EA5F101018DB2F6D170BD10B504461F
:1021A00000BF8021044800F079F80028F9D02146CA
:1021B000014800F040F910BD0038014010B5002280
:1021C000002340F66A14A14200D100BF0A12012484
:1021D0009440A3B2DC43048010BD21B1828942F453
:1021E0000052828104E082894DF6FF731A40828199
:1021F0007047000000B587B001218803FFF7F6FCA7
:1022000001210420FFF7F2FC4FF40070ADF8180034
:1022100018208DF81B0003208DF81A0006A91D4810
:10222000FEF79AF84FF48060ADF8180004208DF89E
:102230001B0006A91748FEF78FF84FF4E130029013
:102240000020ADF80C00ADF80E00ADF81000ADF8B0
:1022500014000C20ADF8120002A90F4800F07AF823
:1022600025208DF8040000208DF805008DF806006B
:1022700001208DF8070001A8FFF772FA012240F251
:102280002551054800F041F801210348FFF7A5FF5B
:1022900007B000BD000801400038014002460020A0
:1022A000B1F5007F00D100BF13880B400BB10120B6
:1022B00000E00020704770B502460024002300258E
:1022C000002040F66A16B14200D100BFC1F34215AA
:1022D00001F01F03012606FA03F3012D02D19689AE
:1022E000334006E0022D02D1168A334001E0968A7F
:1022F00033400C12012606FA04F41688344013B158
:102300000CB1012000E0002070BDF0B503460024B0
:1023100000260025002040F66A17B94200D100BF10
:102320001846C1F3421401F01F06012707FA06F50B
:10233000012C01D10C3004E0022C01D1103000E05E
:1023400014301AB107682F43076002E00768AF43F3
:102350000760F0BD2DE9F04786B005460E46002423
:10236000A24600BFA1460027B08900B100BF2F469A
:102370002C8A4CF6FF700440F08804432C82AC8910
:102380004EF6F3100440B088318908437189084340
:102390000443AC81AC8A4FF6FF400440B08904434B
:1023A000AC8201A8FFF732FC1F48874202D1DDF85A
:1023B00010A001E0DDF80CA0A88900F4004040B1B5
:1023C0000AEBCA0000EB0A1031684900B0FBF1F8D3
:1023D00007E00AEBCA0000EB0A1031688900B0FB85
:1023E000F1F86420B8FBF0F004012009642101FB3E
:1023F0001089A88900F4004040B1322000EBC900E8
:10240000B0FBF1F000F00700044308E0322000EBDD
:1024100009106421B0FBF1F000F00F0004432C819F
:1024200006B0BDE8F087000000380140014688880A
:10243000C0F308007047C1F30802828070470000B3
:1024400003B595B0002014900220119009E0119975
:102450001598415C1498084414901198401CC0B21F
:1024600011901698401E11998842F0DC1498C0B261
:102470001490DDE91501084410F8010C1390DDE912
:102480001301814201D017B000BD1598C078129099
:102490004FF40051FE48FDF7F5FF1298892881F0AE
:1024A00007808100794449688F44000004100000CF
:1024B000240200005E0200009E02000004100000E2
:1024C000300A0000BC0200000410000004100000EC
:1024D00004100000041000000410000004100000AC
:1024E000041000000410000004100000041000009C
:1024F000E4020000280300006C030000B0030000A9
:102500000204000046040000EA080000080A000077
:1025100090080000E00900006C0900004409000078
:102520008A0400005C050000041000001A08000086
:1025300004100000EA07000042080000CC07000079
:10254000041000000410000004100000041000003B
:10255000041000000410000004100000041000002B
:10256000041000000410000004100000041000001B
:102570002E060000600600009C060000D806000041
:1025800014070000500700008C070000A20900009B
:1025900004100000041000000410000004100000EB
:1025A00004100000041000000410000004100000DB
:1025B00004100000041000000410000004100000CB
:1025C00004100000041000000410000004100000BB
:1025D00004100000041000000410000004100000AB
:1025E000041000000410000004100000041000009B
:1025F000800A0000A80A0000D00A0000F80A0000C3
:10260000200B0000480B0000580A000004100000D6
:10261000041000000410000004100000041000006A
:10262000041000000410000004100000700B0000F3
:10263000800B0000900B0000AC0B0000C80B0000EA
:10264000E40B0000000C0000100C0000200C000047
:10265000300C0000400C0000500C0000600C00002A
:10266000700C0000800C0000900C0000A00C00001A
:10267000B00C0000940E0000A40E0000B40E000088
:10268000C40E0000D40E0000E40E0000F40E0000A2
:10269000040F0000140F0000240F0000340F00008E
:1026A000440F0000540F0000640F0000740F00007E
:1026B000840F0000940F0000A40F0000B40F00006E
:1026C000C40F0000D40F0000E40F0000F40F00005E
:1026D000002011906F4B01221146152001F032FAB3
:1026E000052001F097F911AB01221146152001F0E8
:1026F000EBF9022001F08EF99DF84400014610909C
:1027000065A001F031F800F0D4BE15980079119061
:10271000159840791090159880790F9011988DF840
:10272000380010988DF839000F988DF83A000EABEC
:1027300003220221152001F005FA022001F06AF9B6
:10274000002011900F901090DDE7159800791190FE
:102750001198109010AB01220321152001F0F2F91D
:10276000052001F057F9CEE74FF400514848FDF736
:1027700087FE1598007911901198109010AB0122E6
:102780000621152001F0DEF9052001F043F9BAE732
:1027900015980079119015984079109015988079C6
:1027A0000F901598C0790E9011988DF834001098FC
:1027B0008DF835000F988DF836000E988DF837009B
:1027C0000DAB04221121152001F0BCF9142001F0F9
:1027D00021F998E715980079119015984079109093
:1027E000159880790F901598C0790E9011988DF8F2
:1027F000340010988DF835000F988DF836000E983B
:102800008DF837000DAB04221221152001F09AF942
:10281000142001F0FFF876E71598007911901598CB
:1028200040791090159880790F901598C0790E9086
:1028300011988DF8340010988DF835000F988DF8A8
:1028400036000E988DF837000DAB042213211520A9
:1028500001F078F9142001F0DDF854E715980079BB
:102860001190159840791090159880790F901598CF
:10287000C0790E9011988DF8340010988DF83500BD
:102880000F988DF836000E988DF837000DAB05E0E7
:1028900000100140220000202564000004221421C1
:1028A000152001F04FF9142001F0B4F82BE715982A
:1028B00000791190159840791090159880790F90B3
:1028C0001598C0790E9011988DF8340010988DF8F5
:1028D00035000F988DF836000E988DF837000DAB47
:1028E00004221521084601F02DF9142001F092F878
:1028F00009E715980079119015984079109015986E
:1029000080790F901598C0790E9011988DF8340049
:1029100010988DF835000F988DF836000E988DF8C8
:1029200037000DAB04221621152001F00BF91420FD
:1029300001F070F8E7E64FF40051F748FDF7A0FD0D
:102940001598007911901598407910901598807914
:102950000F901598C0790E901598007A0D901598E3
:10296000407A0C901598807A0B901598C07A0A904E
:102970001598007B09901598407B08901598807BEE
:1029800007901598C07B06901598007C05901598C7
:10299000407C049005988DF80C0004988DF80D008B
:1029A00011988DF8000010988DF801000F988DF89F
:1029B00002000E988DF803000D988DF804000C9815
:1029C0008DF805000B988DF806000A988DF8070021
:1029D00009988DF8080008988DF8090007988DF877
:1029E0000A0006988DF80B0003AB02221E21152069
:1029F00001F0A8F8322001F00DF86B460C221D21E1
:102A0000152001F09FF87EE6159800791190159831
:102A100040791090159880790F901598C0790E9094
:102A20001598007A0D901598407A0C901598807A38
:102A30000B901598C07A0A901598007B099015980C
:102A4000407B08901598807B07901598C07B069076
:102A50001598007C05901598407C049005988DF899
:102A60000C0004988DF80D0011988DF80000109856
:102A70008DF801000F988DF802000E988DF8030074
:102A80000D988DF804000C988DF805000B988DF8C2
:102A900006000A988DF8070009988DF80800089834
:102AA0008DF8090007988DF80A0006988DF80B003C
:102AB00003AB02221E21152001F044F8322000F061
:102AC000A9FF6B460C221D21152001F03BF84FF4A5
:102AD00000519148FDF7D4FC15E6002011908F4B72
:102AE00001223121152001F02DF8C82000F092FFBD
:102AF00011AB02223121152000F0E6FFC82000F0C2
:102B000089FF312111A8FDF7D0FBFCE500201190D1
:102B1000834B01223221152001F014F8C82000F067
:102B200079FF11AB02223221152000F0CDFFC82021
:102B300000F070FF322111A8FDF7B7FB4FF40051F0
:102B40007548FDF79DFCDEE500201190754B0122D4
:102B50003321152000F0F6FFC82000F05BFF11AB19
:102B600002223321152000F0AFFFC82000F052FFF1
:102B7000332111A8FDF799FB4FF400516648FDF78A
:102B80007FFCC0E500201190674B01223421152005
:102B900000F0D8FFC82000F03DFF11AB0222342125
:102BA000152000F091FFC82000F034FF342111A857
:102BB000FDF77BFB4FF400515748FDF761FCA2E5A0
:102BC00000201190594B01223521152000F0BAFF49
:102BD000C82000F01FFF11AB02223521152000F0A4
:102BE00073FFC82000F016FF352111A8FDF75DFB2B
:102BF0004FF400514848FDF743FC84E50020119054
:102C00004B4B01223621152000F09CFFC82000F01C
:102C100001FF11AB02223621152000F055FFC8201C
:102C200000F0F8FE362111A8FDF73FFB4FF40051EC
:102C30003948FDF725FC66E5159800791190119843
:102C4000109010AB01223721152000F07BFFC82027
:102C500000F0E0FE374B02223721152000F034FF50
:102C6000C82000F0D7FE334801F0DAFC4FF40051E1
:102C70002948FDF705FC46E5159800791190119853
:102C8000109010AB01222421152000F05BFFC8201A
:102C900000F0C0FE37E500201190274B01222221D1
:102CA000152000F04FFFC82000F0B4FE11AB012248
:102CB0002221152000F008FFC82000F0ABFE11A86B
:102CC000FDF782FAF5E315980079119011981090AC
:102CD00010AB01222021152000F034FFC82000F0A5
:102CE00099FE4FF400510C48FDF7CAFBE1E315983B
:102CF000007911901198109010AB0122232115201A
:102D000000F020FFC82000F085FE4FF4005102487B
:102D1000FDF7B6FBCDE300000010014023000020CA
:102D2000240000202500002026000020270000208D
:102D300028000020290000202C0000201598007990
:102D40001190159840791090159880790F901598EA
:102D5000C0790E901598007A0D9011988DF82C007E
:102D600010988DF82D000F988DF82E000E988DF884
:102D70002F000D988DF830000BAB0522192115207E
:102D800000F0E0FEC82000F045FE4FF40051F74887
:102D9000FDF776FB8DE31598007911901598407931
:102DA0001090159880790F901598C0790E9015980D
:102DB000007A0D9011988DF82C0010988DF82D0048
:102DC0000F988DF82E000E988DF82F000D988DF825
:102DD00030000BAB05221721152000F0B3FEC820F0
:102DE00000F018FE4FF40051E048FDF749FB60E3A6
:102DF0001598007911901198109010AB01221C21A8
:102E0000152000F09FFEC82000F004FE4FF4005192
:102E1000D648FDF735FB4CE300201190D4A00068A4
:102E2000109010AB01221B21152000F08BFEC82052
:102E300000F0F0FD11AB01221B21152000F044FE33
:102E4000C82000F0E7FD11A8FDF709FA31E3159855
:102E5000007911900020109011980F900FAB012273
:102E60003821152000F06EFEC82000F0D3FD10AB15
:102E700001223821152000F027FEC82000F0CAFDED
:102E80004FF40051B948FDF7FBFA12E315980079A9
:102E900011901198109010AB01221A21152000F00A
:102EA00051FEC82000F0B6FD4FF40051AF48FDF7C9
:102EB000E7FAFEE21598007911901198109010AB86
:102EC00001221821152000F03DFEC82000F0A2FDCF
:102ED0004FF40051A548FDF7D3FAEAE215980079BE
:102EE00011901198109010AB01220521152000F0CF
:102EF00029FEC82000F08EFD4FF400519B48FDF7DD
:102F0000BFFAD6E21598007911901198109010AB85
:102F100001225721152000F015FEC82000F07AFD8F
:102F20004FF400519148FDF7ABFAC2E215980079D1
:102F300011901198109010AB01225121152000F032
:102F400001FEC82000F066FD4FF400518748FDF7F0
:102F500097FAAEE21598007911901198109010AB85
:102F600001225221152000F0EDFDC82000F052FD95
:102F70004FF400517D48FDF783FA9AE215980079E5
:102F800011901198109010AB01225321152000F0E0
:102F9000D9FDC82000F03EFD4FF400517348FDF705
:102FA0006FFA86E21598007911901198109010AB85
:102FB00001225421152000F0C5FDC82000F02AFD93
:102FC0004FF400516948FDF75BFA72E215980079F9
:102FD00011901198109010AB01225521152000F08E
:102FE000B1FDC82000F016FD4FF400515F48FDF719
:102FF00047FA5EE21598007911901198109010AB85
:1030000001225621152000F09DFDC82000F002FD90
:103010004FF400515548FDF733FA4AE23520FEF7E8
:10302000B7FE002153A001F0ABFA42E23520FEF7D3
:10303000AFFE002154A001F0A3FA3AE20220FEF70D
:1030400050FE642000F0E6FC0320FEF7A1FE002104
:1030500055A001F095FA2CE20220FEF742FE642012
:1030600000F0D8FC0320FEF793FE0021584801F041
:1030700087FA1EE20120FEF792FE0A2000F0CAFC49
:103080003420FEF785FE002152A001F079FA10E20B
:103090000120FEF784FE0A2000F0BCFC3420FEF77D
:1030A00077FE002153A001F06BFA02E23520FEF713
:1030B0006FFE00215DA001F063FAFAE13520FEF712
:1030C00067FE002161A001F05BFAF2E13520FEF716
:1030D0005FFE002163A001F053FAEAE13520FEF71C
:1030E00057FE002166A001F04BFAE2E13520FEF721
:1030F0004FFE002165A001F043FADAE13520FEF72A
:1031000047FE002164A001F03BFAD2E13520FEF732
:103110003FFE002167A001F033FACAE13520FEF737
:1031200037FE00216AA001F02BFAC2E13520FEF73C
:103130002FFE00216CA001F023FABAE13520FEF742
:1031400027FE00216EA001F01BFAB2E13520FEF748
:103150001FFE002170A001F013FAAAE13520FEF74E
:1031600017FE002171A001F00BFAA2E1001001404E
:1031700001000000C4E3BAC3D1C7B2A9D6C7C4DCFA
:10318000BFC6BCBC00000000BBB6D3ADCAB9D3C338
:10319000D1C7B2A9D6C7C4DCD3EFD2F4B2A5B1A8C7
:1031A000C4A3BFE90000000068656C6C6F20796102
:1031B00068626F6F6D20696E74656C6C6967656EAF
:1031C0007420546563686E6F6C6F6779000000004F
:1031D0000C4700086E693268616F33796134626F41
:1031E000327A6869346E656E67326B65316A69344C
:1031F000000000006875616E3179696E327368692C
:1032000033796F6E6734796134626F327A6869340A
:103210006E656E673279753379696E31626F3162CE
:10322000616F346D6F326B7561693400B3F5CABC80
:10323000BBAFCDEAB3C9BFAACABCCAE4C8EBB5DA12
:10324000D2BBD7E9B6AFD7F700000000BAC3B5C408
:10325000C7EBCAE4C8EBCFC2D2BBD7E9B6AFD7F74A
:1032600000000000D2D1B3ACB9FD3230D7E9B6AF1F
:10327000D7F7C2BCC8EBD2D1BDE1CAF8000000004C
:10328000B3F5CABCBBAFCDEAB3C90000CAB6B1F052
:10329000B3C9B9A600000000D5E2CAC7D2D7C0ADF5
:1032A000B9DECAF4D3DABFC9BBD8CAD5C0ACBBF843
:1032B00000000000D5E2CAC7BEC9CAE9B0FCCAF422
:1032C000D3DABFC9BBD8CAD5C0ACBBF80000000078
:1032D000D5E2CAC7B1A8D6BDCAF4D3DABFC9BBD834
:1032E000CAD5C0ACBBF80000D5E2CAC7CAE9B0FC79
:1032F000CAF4D3DABFC9BBD8CAD5C0ACBBF800008A
:10330000D5E2CAC7CEC0C9FAD6BDCAF4D3DAB8C9A5
:10331000C0ACBBF800000000D5E2CAC7BACBCCD223
:10332000CAF4D3DAB8C9C0ACBBF80000D5E2CAC74A
:10333000D1CCB5D9CAF4D3DAB8C9C0ACBBF8000057
:103340003520FEF725FD00215CA001F019F9B0E061
:103350003520FEF71DFD00215FA001F011F9A8E066
:103360003520FEF715FD002161A001F009F9A0E06C
:103370003520FEF70DFD002163A001F001F998E072
:103380003520FEF705FD002165A001F0F9F890E079
:103390003520FEF7FDFC002166A001F0F1F888E081
:1033A0003520FEF7F5FC002169A001F0E9F880E086
:1033B0003520FEF7EDFC00216CA001F0E1F878E08B
:1033C0003520FEF7E5FC00216FA001F0D9F870E090
:1033D0003520FEF7DDFC002171A001F0D1F868E096
:1033E0003520FEF7D5FC002170A001F0C9F860E09F
:1033F0003520FEF7CDFC00216FA001F0C1F858E0A8
:103400003520FEF7C5FC00216EA001F0B9F850E0B0
:103410003520FEF7BDFC00216DA001F0B1F848E0B9
:103420003520FEF7B5FC00216CA001F0A9F840E0C2
:103430003520FEF7ADFC00216BA001F0A1F838E0CB
:103440003520FEF7A5FC00216AA001F099F830E0D4
:103450003520FEF79DFC002169A001F091F828E0DD
:103460003520FEF795FC002168A001F089F820E0E6
:103470003520FEF78DFC00216AA001F081F818E0EC
:103480003520FEF785FC00216DA001F079F810E0F1
:103490003520FEF77DFC002170A001F071F808E0F6
:1034A0003520FEF775FC002173A001F069F800E0FB
:1034B00000BF00BF00BFFEF7E6BF0000D5E2CAC7ED
:1034C000D2BBB4CED0D4BFEAD7D3CAF4D3DAB8C90A
:1034D000C0ACBBF800000000D5E2CAC7BCA6B5B0BE
:1034E000BFC7CAF4D3DACAAAC0ACBBF80000000058
:1034F000D5E2CAC7C6BBB9FBBACBCAF4D3DACAAAEB
:10350000C0ACBBF800000000D5E2CAC7CEF7B9CF07
:10351000C6A4CAF4D3DACAAAC0ACBBF80000000043
:10352000D5E2CAC7D3E3B9C7CAF4D3DACAAAC0ACD2
:10353000BBF80000D5E2CAC7B9FDC6DAD2A9C6B742
:10354000CAF4D3DAD3D0BAA6C0ACBBF800000000EE
:10355000D5E2CAC7B9FDC6DABBAFD7B1C6B7CAF4A0
:10356000D3DAD3D0B6BEC0ACBBF80000D5E2CAC730
:10357000B7CFBEC9B5E7B3D8CAF4D3DAD3D0B6BE95
:10358000C0ACBBF800000000D5E2CAC7D7A2C9E4AE
:10359000C6F7CAF4D3DAD3D0BAA6C0ACBBF80000E1
:1035A000D5E2CAC7BBC6C9AB00000000D5E2CAC796
:1035B000BAECC9AB00000000D5E2CAC7C2CCC9ABA7
:1035C00000000000D5E2CAC7C0B6C9AB00000000C9
:1035D000CAB6B1F0B5BDBBC6C9AB0000B7C5D6C34E
:1035E000CDEAB3C900000000CAB6B1F0B5BDBAEC6F
:1035F000C9AB0000CAB6B1F0B5BDC2CCC9AB0000C2
:10360000CAB6B1F0B5BDC0B6C9AB0000B5DAD2BB21
:10361000B8F6D2AAC5C5D0F2B5C4D1D5C9ABCAC710
:1036200000000000BAC3B5C4B5DAB6FEB8F6D2AA37
:10363000C5C5D0F2B5C4D1D5C9ABCAC7000000001A
:10364000BAC3B5C4C5C5D0F2B3C9B9A6CAC7B7F124
:10365000BFAACABCB7D6BCF000000000BAC3B5C44C
:10366000B5DAC8FDB8F6D2AAC5C5D0F2B5C4D1D571
:10367000C9ABCAC700000000BAC3B5C4B5DACBC431
:10368000B8F6D2AAC5C5D0F2B5C4D1D5C9ABCAC7A0
:10369000000000002E49097831B101290DD002291E
:1036A0001CD0032951D138E0FF2805D1FF21294A38
:1036B00011700121264A117048E0FC2808D1FC2134
:1036C000244A51700221224A1170234A117004E0E9
:1036D00000211F4A11701F4A117037E0811C1F4AD8
:1036E00011701146097814290ADB00211A4A117059
:1036F000174A1170174A11705170184A117025E05D
:103700001449154A1278885413490978491C124AF9
:10371000117003210E4A117018E00E490E4A1278FA
:1037200088540D490978491C0B4A117011460978D3
:103730000A4A1278914207DB0121094A11700021DF
:10374000054A1170024A117000E000BF00BF7047C7
:103750001C000020DC0000201B0000201E000020B8
:103760001D00002000BFFEE70FB4054B10B503A9F4
:10377000044A029800F02CF810BC5DF814FB00001D
:10378000553A0008D00000200FB4084B10B504A92A
:1037900002AA039800F01CF8044602A9002000F0D9
:1037A000F3F8204610BC5DF814FB000089390008CE
:1037B00002E008C8121F08C1002AFAD170477047FA
:1037C000002001E001C1121F002AFBD17047000058
:1037D0002DE9FF4F8BB09A460F460546002606E0BE
:1037E00025280BD052460D9990476D1C761C2878E1
:1037F0000028F5D10FB03046BDE8F08F0024A04678
:103800000122604900E0044315F8013F203B02FA21
:1038100003F00842F7D128782E2817D115F8010FA8
:1038200044F004042A280ED06FF02F022878A0F16B
:10383000300109290AD808EB880102EB410100EBAD
:1038400001086D1CF2E757F8048B6D1C2878692875
:103850003ED006DC0028CDD063280BD0642804D1EC
:1038600036E0732810D075284BD052460D999047FA
:10387000761C85E017F8040B8DF8000000208DF809
:103880000100E946012003E057F8049B4FF0FF30A8
:1038900061074FF0000401D40AE0641C44450DDACE
:1038A0008442FADB19F804100029F6D106E0641C02
:1038B0008442FCDB19F804100029F8D1264404E006
:1038C00019F8010B52460D999047641EF8D257E043
:1038D00001CF4FF00A0B002802DA40422D2102E00E
:1038E000210504D52B218DF82410012103E0E107E7
:1038F00005D02021F7E70DF1200908910CE0002107
:10390000F9E701CF4FF00A0BF9E75946FCF733FC12
:1039100001F1300209F8012D0028F6D1ADEB0900C4
:1039200000F1200B600701D44FF00108D84502DDFB
:10393000A8EB0B0000E000208046002406E009A868
:103940005246005D0D999047641C761C089884428D
:10395000F5DB04E0302052460D999047761CB8F113
:103960000001A8F10108F5DC05E019F8010B524649
:103970000D999047761CBBF10001ABF1010BF4DC13
:103980006D1C34E7092801000A68531C0B60107095
:10399000704700004FF0E021096921F004014FF069
:1039A000E0221161C21700EB5272C2F3C702074B4B
:1039B0001A701946097801EB4102C2EBC1114FF6AA
:1039C000FF7202EAC101024A1180704754000020D0
:1039D0005600002001460E4A12884A43521E4FF0FC
:1039E000E0235A6100229A6101221A6100BF4FF060
:1039F000E022106900F001021AB100F48032002ABE
:103A0000F5D000224FF0E0231A619A617047000060
:103A10005600002001460E4A12784A43521E4FF0CB
:103A2000E0235A6100229A6101221A6100BF4FF01F
:103A3000E022106900F001021AB100F48032002A7D
:103A4000F5D000224FF0E0231A619A617047000020
:103A50005400002070B504460D46E1B20548FEF75B
:103A6000EAFC00BF80210348FEF718FC0028F9D0CB
:103A7000204670BD0038014010B5002821D0114B00
:103A80000022001F196803E0814203D80A464968F2
:103A90000029F9D152B11368841A9C4204D10068FC
:103AA00018441060104602E0506000E0186039B120
:103AB00002680B1A934203D10B681A4402604968EA
:103AC000416010BDD40000202DE9F0410546884634
:103AD00016461F460024FDF77DFD6906080EFDF71A
:103AE0003DFDFDF7B3FDC820FFF794FF4046FDF70D
:103AF00035FDFDF7ABFDC820FFF78CFFFDF76AFD34
:103B0000012101EB4501C8B2FDF728FDFDF79EFD3F
:103B1000C820FFF77FFF00BF0DE0701EA04204D059
:103B20000120FDF7E5FC385503E00020FDF7E0FC3F
:103B30003855601CC4B2B442EFDBFDF769FD0020CC
:103B4000BDE8F0812DE9F04105460E46174698463E
:103B5000FDF740FD6906080EFDF700FDFDF776FD57
:103B6000C820FFF757FF3046FDF7F8FCFDF76EFD64
:103B7000C820FFF74FFF002406E018F80400FDF707
:103B8000EDFCFDF763FD641CBC42F6DBFDF740FD78
:103B90000020BDE8F0812DE9F0470546884616462D
:103BA0001F460024A146FDF715FD6906080EFDF726
:103BB000D5FCFDF74BFDC820FFF72CFF4046FDF775
:103BC000CDFCFDF743FDC820FFF724FFFDF702FD04
:103BD000012101EB4501C8B2FDF7C0FCFDF736FD40
:103BE000C820FFF717FF00BF0DE0701EA04204D0F1
:103BF0000120FDF77DFC385503E00020FDF778FC3F
:103C00003855601CC4B2B442EFDBFDF701FD002063
:103C1000BDE8F0872DE9F04105460E461746984667
:103C2000FDF7D8FC6906080EFDF798FCFDF70EFDC0
:103C3000C820FFF7EFFE3046FDF790FCFDF706FDCC
:103C4000C820FFF7E7FE002409E018F80400FDF79C
:103C500085FCFDF7FBFCC820FFF7DCFE641CBC42C2
:103C6000F3DBFDF7D5FC0020BDE8F0810920FEF76D
:103C700019F94820FFF78EFE4FF4FA70FFF7AAFEFD
:103C8000FEF7B8FAFDF7E6FBFDF796FEFDF73EFFFF
:103C90004FF4FA70FFF79EFEFDF704FD41F61F4159
:103CA00042F20F7000F0EAFC0B4B012204210F20BE
:103CB000FFF7B0FF094B032211460F20FFF7AAFFC1
:103CC0000A20FEF7E7F805E000F00CFD00F060F8D0
:103CD000FCF7EAFBF8E700001700002014000020C2
:103CE000F0B50B30154D20F007010024144A0FE009
:103CF00003688B420BD38B4205D95E1A4318476881
:103D0000C3E9006700E04368136002C004E0021DDD
:103D100010680028ECD12046002802D1286808B19C
:103D20000020F0BD064A07481060074A121A22F028
:103D30000702C0E9002401202860D7E7D80000204E
:103D4000D400002004010020000300202DE9F041F0
:103D500005460E461746FDF73DFC6906080EFDF7C1
:103D6000FDFBFDF773FCC820FFF754FE002408E0BC
:103D7000385DFDF7F3FBFDF769FCC820FFF74AFE4D
:103D8000641CB442F4DBFDF743FC0020BDE8F08185
:103D900010B5F94B012208210F20FFF7FCFEC820C7
:103DA000FFF738FEF4480078FF2815D0F248007875
:103DB000F24908600846006801280ED13520FDF759
:103DC000E7FF0021EEA000F0DBFBEC490878FCF7F0
:103DD00021FA0020E94908608DE3E84800680228DC
:103DE0000ED13520FDF7D4FF0021E9A000F0C8FB7B
:103DF000E2490878FCF70EFA0020E04908607AE30F
:103E0000DE48006803280ED13520FDF7C1FF0021F0
:103E1000E3A000F0B5FBD9490878FCF7FBF90020D6
:103E2000D649086067E3D548006804280ED13520DC
:103E3000FDF7AEFF0021DEA000F0A2FBCF4908781D
:103E4000FCF7E8F90020CD49086054E3CB4800684E
:103E500005280ED13520FDF79BFF0021D7A000F0EB
:103E60008FFBC6490878FCF7D5F90020C3490860E4
:103E700041E3C248006806280ED13520FDF788FFCF
:103E80000021D2A000F07CFBBC490878FCF7C2F905
:103E90000020BA4908602EE3B848006807280ED110
:103EA0003520FDF775FF0021CCA000F069FBB34978
:103EB0000878FCF7AFF90020B04908601BE3AF4871
:103EC000006808280ED13520FDF762FF0021C7A049
:103ED00000F056FBA9490878FCF79CF90020A74997
:103EE000086008E3A548006809280ED13520FDF7D1
:103EF0004FFF0021C1A000F043FBA0490878FCF768
:103F000089F900209D490860F5E29C4800680A286C
:103F10000ED13520FDF73CFF0021BCA000F030FBA6
:103F200096490878FCF776F9002094490860E2E2A7
:103F3000924800680B280ED13520FDF729FF00219B
:103F4000B6A000F01DFB8D490878FCF763F900204E
:103F50008A490860CFE2894800680C280ED13520D4
:103F6000FDF716FF0021ADA000F00AFB8349087899
:103F7000FCF750F9002081490860BCE27F480068E6
:103F80000D280ED13520FDF703FF0021A3A000F07E
:103F9000F7FA7A490878FCF73DF90020774908607C
:103FA000A9E2764800680E280ED13520FDF7F0FE14
:103FB00000219AA000F0E4FA70490878FCF72AF989
:103FC00000206E49086096E26C4800680F280ED108
:103FD0003520FDF7DDFE002190A000F0D1FA674901
:103FE0000878FCF717F900206449086083E2634809
:103FF000006810280ED13520FDF7CAFE002187A0E9
:1040000000F0BEFA5D490878FCF704F900205B492E
:10401000086070E25948006811280ED13520FDF77C
:10402000B7FE00217DA000F0ABFA54490878FCF7F8
:10403000F1F80020514908605DE2504800681228FC
:104040000ED13520FDF7A4FE002176A000F098FAED
:104050004A490878FCF7DEF80020484908604AE23F
:104060004648006813280ED13520FDF791FE002147
:1040700070A000F085FA41490878FCF7CBF80020E1
:104080003E49086037E23D48006814280ED13520CB
:10409000FDF77EFE00216BA000F072FA3749087828
:1040A000FCF7B8F800203549086024E2334800687E
:1040B00015280ED13520FDF76BFE002165A000F01C
:1040C0005FFA2E490878FCF7A5F800202B49086014
:1040D00011E22A480068162807D128490878FCF719
:1040E00099F800202549086005E22448006817284F
:1040F0000ED13520FDF74CFE00215AA000F040FA09
:104100001E490878FCF786F800201C490860F2E197
:104110001A48006818280ED13520FDF739FE002115
:1041200053A000F02DFA15490878FCF773F8002029
:1041300012490860DFE11148006819280ED13520C6
:10414000FDF726FE00214FA000F01AFA0B4908786F
:10415000FCF760F8002009490860CCE107480068D6
:104160001A2807D105490878FCF754F800200349BC
:104170000860C0E18EE000005C00002058000020D4
:10418000BAC3B5C4D2D1C1C1BAECB5C600000000F3
:10419000BAC3B5C4D2D1C1C1C2CCB5C600000000FB
:1041A000BAC3B5C4D2D1C1C1C0B6B5C60000000003
:1041B000BAC3B5C4D2D1B9D8B5C60000BAC3B5C464
:1041C000D2D1BFD8D6C6CFF2C9CF0000BAC3B5C4CA
:1041D000D2D1BFD8D6C6CFF2CFC20000BAC3B5C4C1
:1041E000D2D1BFD8D6C6CFF2D7F30000BAC3B5C478
:1041F000D2D1BFD8D6C6CFF2D3D20000BAC3B5C48D
:10420000D2D1BFD8D6C6BCD0BDF40000BAC3B5C4A5
:10421000D2D1BFD8D6C6CBC9BFAA0000BAC3B5C4D5
:1042200000000000BAC3B5C4BFAACABCB5FEC2DE56
:10423000BABA0000BAC3B5C4BFAACABCCCF8CEE8AB
:1042400000000000BAC3B5C4BFAACABCBCD0B7BD89
:10425000BFE90000BAC3B5C4BFAACABCB0E1D4CBA1
:1042600000000000BAC3B5C4D2D1BDE1CAF8000055
:10427000BAC3B5C4BFAACABCD4CBD0D0B6AFD7F7E7
:1042800000000000BAC3B5C4B6AFD7F7D2D1C7E5B6
:10429000B3FE0000984800681B2807D196490878AB
:1042A000FBF7B8FF00209449086024E192480068B9
:1042B0001C280ED13520FDF76BFD00218FA000F0EA
:1042C0005FF98D490878FBF7A5FF00208A4908604F
:1042D00011E1894800681D280ED13520FDF758FDF1
:1042E000002186A000F04CF983490878FBF792FF83
:1042F000002081490860FEE07F4800681E280ED13A
:104300003520FDF745FD00217CA000F039F97A4900
:104310000878FBF77FFF002077490860EBE07648DC
:1043200000681F280ED13520FDF732FD002173A053
:1043300000F026F970490878FBF76CFF00206E4901
:104340000860D8E06C480068202807D16A490878DE
:10435000FBF760FF002068490860CCE06648006811
:10436000212807D164490878FBF754FF00206249EF
:104370000860C0E060480068222807D15E490878DC
:10438000FBF748FF00205C490860B4E05A48006829
:10439000232807D158490878FBF73CFF00205649ED
:1043A0000860A8E05448006824280FD13520FDF7A4
:1043B000EFFC0021AFF29C1000F0E2F84E490878C3
:1043C000FBF728FF00204C49086094E04A48006849
:1043D00025280ED13520FDF7DBFC00214BA000F095
:1043E000CFF845490878FBF715FF002042490860DF
:1043F00081E04148006826280ED13520FDF7C8FC31
:10440000002147A000F0BCF83B490878FBF702FF09
:104410000020394908606EE03748006827280ED12F
:104420003520FDF7B5FC002142A000F0A9F8324983
:104430000878FBF7EFFE00202F4908605BE02E486C
:10444000006828280ED13520FDF7A2FC00213EA0EF
:1044500000F096F828490878FBF7DCFE0020264992
:10446000086048E02448006829280ED13520FDF76F
:104470008FFC002139A000F083F81F490878FBF772
:10448000C9FE00201C49086035E01B4800682A2846
:104490000ED13520FDF77CFC002135A000F070F82E
:1044A00015490878FBF7B6FE00201349086022E0A2
:1044B000114800682B2807D10F490878FBF7AAFE9E
:1044C00000200D49086016E00B4800682C2807D131
:1044D00009490878FBF79EFE0020074908600AE0BA
:1044E000054800682D2806D103490878FBF792FE9D
:1044F00000200149086010BD58000020BAC3B5C4AF
:10450000BFAACABCBCD0C8A100000000BAC3B5C4D1
:10451000BFAACABCD7B7D7D9BAECC9AB0000000054
:10452000BAC3B5C4BFAACABCD7B7D7D9BBC6C9AB73
:1045300000000000BAC3B5C4BFAACABCD7B7D7D958
:10454000C2CCC9AB00000000BAC3B5C4BFAACABC84
:10455000D7B7D7D9C0B6C9AB00000000BAC3B5C43D
:10456000BFAACABCD7B7D7D9C8CBC1B30000000017
:10457000BAC3B5C4C8A1CFFBD7B7D7D900000000D4
:104580002DE9F04385B0064688463046FBF7ECFD42
:10459000801C84B20025A4F102094846FFF7A0FB65
:1045A0000746FD208DF8080020128DF80900E0B2C2
:1045B0008DF80A0001208DF80B008DF80C80049610
:1045C0009DF808008DF800009DF809008DF80100A5
:1045D0009DF80A008DF802009DF80B008DF803008D
:1045E0009DF80C008DF8040000BF02E0705D785566
:1045F0006D1CA01EA842F9DC6A4605213020FFF799
:10460000A5FBC820FFF706FAA01EC1B23A4630202B
:10461000FFF79CFB3846FFF72FFA05B0BDE8F083A3
:104620007CB504460020009001900025FF208DF805
:104630000000FB208DF8010005208DF802000B2002
:104640008DF8030020788DF8040060788DF805005F
:10465000022005E01DF800102944CDB2411CC8B26B
:104660000628F7DB8DF8065007216846FDF788FD20
:1046700007216846FBF764FE7CBD00007FB5054658
:104680000C4601210220FDF7A1FA0020ADF80A0036
:10469000ADF80600ADF80850ADF8044001A9104887
:1046A000FDF7E6FC012211460D48FDF7D8FC4FF45A
:1046B000E060FDF78DF81D208DF8000001208DF8D9
:1046C000030000208DF8010003208DF802006846E9
:1046D000FDF746F801210248FDF7A4FC7FBD00006C
:1046E0000004004070B5FBF7CFFE50B1FBF7D2FEDF
:1046F0000446FBF7D5FE05462146FDF7A1FEFBF774
:1047000007FE0720FFF766F970BD000057656C6370
:104710006F6D6520746F2075736520796168626FB5
:104720006F6D20696E74656C6C6967656E7420745A
:104730006563686E6F6C6F677920766F696365205B
:1047400062726F616463617374206D6F64756C6510
:10475000000000007447000800000020DC0000009A
:10476000B037000850480008DC0000202406000094
:10477000C037000800000000010203040102030426
:104780000607080902040608FFFFFF4000FF0000BB
:104790000000000000000100000000000000000018
:1047A00001000000000001420100020003000400BB
:1047B000050006000700080009000A000B000C00B5
:1047C0000D000E000F0010000000000000000000AF
:1047D00000400100F40100005A0000005A000000EF
:1047E0005A0000005A0000005A0000005A00000061
:1047F00000000000000000000000000000000000B9
:1048000000000000000000000000000000000000A8
:104810000000000000000000000000000000000098
:104820000000000000000000000000000000000088
:104830000000000007D007D007D007D006180C1CD6
:1048400001F4000000000000000000000000000073
:0400000508000131BD
:00000001FF
